:1000000012C02CC02BC02AC029C028C027C026C0BF
:1000100025C024C023C0E6C0ABC020C01FC01EC086
:100020001DC01CC01BC011241FBECFE5D4E0DEBF25
:10003000CDBF10E0A0E6B0E0E4E7F2E002C005903A
:100040000D92A836B107D9F720E0A8E6B0E001C0CC
:100050001D92A139B207E1F703D10AC1D1CF615096
:10006000E8F0E9F00F922227082E089E121206C02F
:100070006A95D9F7CA010F90112408956A95D1F3B2
:10008000312D089EA001389F121203C0500D08F0B8
:10009000F5CF0F90112488279927089581E00895BE
:1000A00010BC84E389B988E98AB98EE880BD1092D2
:1000B0007C00089590917C0092FD0BC0209160001F
:1000C000309161004091620050916300241B350B18
:1000D00072F091E0409160005091610020916200C7
:1000E000309163004217530749F490E007C02C5E3B
:1000F0003F4F91E02230310508F490E09923B1F1AF
:10010000A0916200B0916300FD011192EC57F040A4
:1001100049F48093680089E690E0909363008093AF
:10012000620011C011968C9311971296B0936300E0
:10013000A0936200AC57B04031F488E690E0909311
:10014000630080936200209162003091630080918F
:100150006000909161002817390729F480917C0094
:10016000846080937C00559A81E0089580E0089532
:100170001F920F920FB60F9211242F933F938F93DC
:100180009F93EF93FF93E0916000F0916100819164
:100190008CB9F0936100E093600080917C008B7FCC
:1001A00080937C00EC57F04030F088E690E090932C
:1001B0006100809360002091620030916300809123
:1001C0006000909161002817390709F45598FF9154
:1001D000EF919F918F913F912F910F900FBE0F90B4
:1001E0001F9018951F920F920FB60F9211242F9304
:1001F0003F934F938F939F93EF93FF93E09166000C
:10020000F09167008CB1808340917C004D7F4093DA
:100210007C0080916600909167008159904030F099
:100220008DE790E0909367008093660020916400D2
:10023000309165008091660090916700281739071A
:1002400019F4416040937C00FF91EF919F918F9151
:100250004F913F912F910F900FBE0F901F901895C7
:1002600081E084BB1DDF64E08AE0F9DE23DFFFCF9D
:04027000F894FFCF30
:08027400680068007D007D00B8
:00000001FF
